{"abi":[{"type":"constructor","inputs":[{"name":"tokenBridge_","type":"address","internalType":"address"},{"name":"unwrapWeth_","type":"bool","internalType":"bool"},{"name":"executor_","type":"address","internalType":"address"}],"stateMutability":"nonpayable"},{"type":"receive","stateMutability":"payable"},{"type":"function","name":"VERSION","inputs":[],"outputs":[{"name":"","type":"string","internalType":"string"}],"stateMutability":"view"},{"type":"function","name":"chainId","inputs":[],"outputs":[{"name":"","type":"uint16","internalType":"uint16"}],"stateMutability":"view"},{"type":"function","name":"completeTransferWithRelay","inputs":[{"name":"encodedTransferMessage","type":"bytes","internalType":"bytes"}],"outputs":[],"stateMutability":"payable"},{"type":"function","name":"decodeTransferWithRelay","inputs":[{"name":"encoded","type":"bytes","internalType":"bytes"}],"outputs":[{"name":"transfer","type":"tuple","internalType":"struct TokenBridgeRelayerStructs.TransferWithRelay","components":[{"name":"targetRecipient","type":"bytes32","internalType":"bytes32"}]}],"stateMutability":"pure"},{"type":"function","name":"denormalizeAmount","inputs":[{"name":"amount","type":"uint256","internalType":"uint256"},{"name":"decimals","type":"uint8","internalType":"uint8"}],"outputs":[{"name":"","type":"uint256","internalType":"uint256"}],"stateMutability":"pure"},{"type":"function","name":"encodeTransferWithRelay","inputs":[{"name":"transfer","type":"tuple","internalType":"struct TokenBridgeRelayerStructs.TransferWithRelay","components":[{"name":"targetRecipient","type":"bytes32","internalType":"bytes32"}]}],"outputs":[{"name":"encoded","type":"bytes","internalType":"bytes"}],"stateMutability":"pure"},{"type":"function","name":"executor","inputs":[],"outputs":[{"name":"","type":"address","internalType":"contract IExecutor"}],"stateMutability":"view"},{"type":"function","name":"fetchLocalAddressFromTransferMessage","inputs":[{"name":"payload","type":"bytes","internalType":"bytes"}],"outputs":[{"name":"localAddress","type":"address","internalType":"address"}],"stateMutability":"view"},{"type":"function","name":"normalizeAmount","inputs":[{"name":"amount","type":"uint256","internalType":"uint256"},{"name":"decimals","type":"uint8","internalType":"uint8"}],"outputs":[{"name":"","type":"uint256","internalType":"uint256"}],"stateMutability":"pure"},{"type":"function","name":"tokenBridge","inputs":[],"outputs":[{"name":"","type":"address","internalType":"contract ITokenBridge"}],"stateMutability":"view"},{"type":"function","name":"tokenBridgeEmitter","inputs":[],"outputs":[{"name":"","type":"bytes32","internalType":"bytes32"}],"stateMutability":"view"},{"type":"function","name":"transferTokensWithRelay","inputs":[{"name":"token","type":"address","internalType":"address"},{"name":"amount","type":"uint256","internalType":"uint256"},{"name":"targetChain","type":"uint16","internalType":"uint16"},{"name":"targetRecipient","type":"bytes32","internalType":"bytes32"},{"name":"nonce","type":"uint32","internalType":"uint32"},{"name":"dstTransferRecipient","type":"bytes32","internalType":"bytes32"},{"name":"dstExecutionAddress","type":"bytes32","internalType":"bytes32"},{"name":"executionAmount","type":"uint256","internalType":"uint256"},{"name":"refundAddr","type":"address","internalType":"address"},{"name":"signedQuoteBytes","type":"bytes","internalType":"bytes"},{"name":"relayInstructions","type":"bytes","internalType":"bytes"}],"outputs":[{"name":"messageSequence","type":"uint64","internalType":"uint64"}],"stateMutability":"payable"},{"type":"function","name":"unwrapWeth","inputs":[],"outputs":[{"name":"","type":"bool","internalType":"bool"}],"stateMutability":"view"},{"type":"function","name":"weth","inputs":[],"outputs":[{"name":"","type":"address","internalType":"contract IWETH"}],"stateMutability":"view"},{"type":"function","name":"wormhole","inputs":[],"outputs":[{"name":"","type":"address","internalType":"contract IWormhole"}],"stateMutability":"view"},{"type":"function","name":"wrapAndTransferEthWithRelay","inputs":[{"name":"targetChain","type":"uint16","internalType":"uint16"},{"name":"targetRecipient","type":"bytes32","internalType":"bytes32"},{"name":"nonce","type":"uint32","internalType":"uint32"},{"name":"dstTransferRecipient","type":"bytes32","internalType":"bytes32"},{"name":"dstExecutionAddress","type":"bytes32","internalType":"bytes32"},{"name":"executionAmount","type":"uint256","internalType":"uint256"},{"name":"refundAddr","type":"address","internalType":"address"},{"name":"signedQuoteBytes","type":"bytes","internalType":"bytes"},{"name":"relayInstructions","type":"bytes","internalType":"bytes"}],"outputs":[{"name":"messageSequence","type":"uint64","internalType":"uint64"}],"stateMutability":"payable"},{"type":"event","name":"TransferRedeemed","inputs":[{"name":"emitterChainId","type":"uint16","indexed":true,"internalType":"uint16"},{"name":"emitterAddress","type":"bytes32","indexed":true,"internalType":"bytes32"},{"name":"sequence","type":"uint64","indexed":true,"internalType":"uint64"}],"anonymous":false}],"bytecode":{"object":"0x61016060409080825234620002e257606081620021758038038091620000268285620002e7565b833981010312620002e2576200003c8162000321565b90602092838201519384151592838603620002e257826200005e910162000321565b600160009081556001600160a01b03958616959160049083906200008489151562000336565b16956200009387151562000336565b61010098888a528561012099808b528851948580926315ab88c960e31b82525afa928315620002d8579085929185946200028f575b508360c05260a05262000279575b88518651634d4502c960e11b81529250859183916004918391165afa908115620002305782916200023a575b50608052600483838951168651928380926384acd1bb60e01b82525afa93841562000230578294620001e6575b5050505060e0526101409182525191611e2093846200035585396080518481816107430152818161109b01526119ed015260a05184818161049b0152818161077f0152610bb7015260c0518481816103db015281816104e00152610c7e015260e0518481816106f90152818161096801528181610bf701526117c90152518381816107ff01528181610f7f015281816118190152611a45015251828181610846015261107a0152518181816107ba01526110260152f35b908092939450813d831162000228575b620002028183620002e7565b810103126200022457519182168203620002215750388080806200012f565b80fd5b5080fd5b503d620001f6565b85513d84823e3d90fd5b90508381813d831162000271575b620002548183620002e7565b8101031262000224575161ffff8116810362000224573862000102565b503d62000248565b620002879116151562000336565b3882620000d6565b8780929550819394503d8311620002d0575b620002ad8183620002e7565b81010312620002cc57518481168103620002cc579084919238620000c8565b8380fd5b503d620002a1565b87513d86823e3d90fd5b600080fd5b601f909101601f19168101906001600160401b038211908210176200030b57604052565b634e487b7160e01b600052604160045260246000fd5b51906001600160a01b0382168203620002e257565b156200033e57565b634e487b7160e01b600052600160045260246000fdfe6080604052600436101561001b575b361561001957600080fd5b005b60003560e01c806327105ab91461011b57806328ded8e3146101165780632d77e8fe146101115780632f25e25f1461010c5780633fc8cef31461010757806350789cb514610102578063730a286b146100fd5780637c9dec7a146100f857806384acd1bb146100f35780639a8a0592146100ee5780639cf278cd146100e9578063c34c08e5146100e4578063c6328a46146100df578063d8b32910146100da578063e50e7e72146100d55763ffa1ad740361000e576108f1565b610869565b61082e565b6107e9565b6107a4565b610767565b610728565b6106e3565b6106c2565b61061a565b610568565b6104ca565b61037d565b610326565b610162565b610130565b60ff81160361012b57565b600080fd5b3461012b57604036600319011261012b57602061015a60243561015281610120565b600435611c4a565b604051908152f35b3461012b57604036600319011261012b57602061015a60243561018481610120565b600435611ca6565b634e487b7160e01b600052604160045260246000fd5b6001600160401b0381116101b557604052565b61018c565b602081019081106001600160401b038211176101b557604052565b608081019081106001600160401b038211176101b557604052565b604081019081106001600160401b038211176101b557604052565b606081019081106001600160401b038211176101b557604052565b90601f801991011681019081106001600160401b038211176101b557604052565b6040519061016082018281106001600160401b038211176101b557604052565b60405190610274826101ba565b565b6040519061010082018281106001600160401b038211176101b557604052565b6001600160401b0381116101b557601f01601f191660200190565b9291926102bd82610296565b916102cb6040519384610226565b82948184528183011161012b578281602093846000960137010152565b602060031982011261012b57600435906001600160401b03821161012b578060238301121561012b57816024610323936004013591016102b1565b90565b3461012b57602061033e610339366102e8565b6119d2565b6040516001600160a01b039091168152f35b9181601f8401121561012b578235916001600160401b03831161012b576020838186019501011161012b57565b602036600319011261012b576004356001600160401b03811161012b576103d06103c06103bb6103b46103ca943690600401610350565b36916102b1565b611796565b9291939093611d7f565b51611bd0565b6001600160a01b03917f000000000000000000000000000000000000000000000000000000000000000083169190831680831480610498575b1561048a5750813b1561012b57604051632e1a7d4d60e01b815260048101859052600094909285908490602490829084905af191821561046257859485948594610471575b5083918315610467575b1690f11561046257005b610adb565b6108fc9250610458565b8061047e610484926101a2565b806104bf565b3861044e565b909150610019939250611484565b507f0000000000000000000000000000000000000000000000000000000000000000610409565b600091031261012b57565b3461012b57600036600319011261012b576040517f00000000000000000000000000000000000000000000000000000000000000006001600160a01b03168152602090f35b60005b8381106105225750506000910152565b8181015183820152602001610512565b9060209161054b8151809281855285808601910161050f565b601f01601f1916010190565b906020610323928181520190610532565b3461012b57602036600319011261012b576105a961059560405161058b816101ba565b6004358152611d68565b604051918291602083526020830190610532565b0390f35b6001600160a01b0381160361012b57565b60043590610274826105ad565b6101043590610274826105ad565b60c43590610274826105ad565b61ffff81160361012b57565b60443590610274826105e6565b63ffffffff81160361012b57565b60843590610274826105ff565b61016036600319011261012b5761062f6105be565b6106376105f2565b61063f61060d565b916106486105cb565b6001600160401b0392906101243584811161012b5761066b903690600401610350565b916101443595861161012b576105a99661068c6106a8973690600401610350565b96909560e4359260c4359260a435926064359160243590610937565b6040516001600160401b0390911681529081906020820190565b3461012b5760206106da6106d5366102e8565b611d7f565b60405190518152f35b3461012b57600036600319011261012b576040517f00000000000000000000000000000000000000000000000000000000000000006001600160a01b03168152602090f35b3461012b57600036600319011261012b57602060405161ffff7f0000000000000000000000000000000000000000000000000000000000000000168152f35b3461012b57600036600319011261012b5760206040517f000000000000000000000000000000000000000000000000000000000000000015158152f35b3461012b57600036600319011261012b576040517f00000000000000000000000000000000000000000000000000000000000000006001600160a01b03168152602090f35b3461012b57600036600319011261012b576040517f00000000000000000000000000000000000000000000000000000000000000006001600160a01b03168152602090f35b3461012b57600036600319011261012b5760206040517f00000000000000000000000000000000000000000000000000000000000000008152f35b61012036600319011261012b57600435610882816105e6565b60443561088e816105ff565b6108966105d9565b916001600160401b039160e43583811161012b576108b8903690600401610350565b906101043594851161012b576105a9956108d96106a8963690600401610350565b95909460a43591608435916064359160243590610ba8565b3461012b57600036600319011261012b576105a9604051610911816101f0565b60058152640302e332e360dc1b6020820152604051918291602083526020830190610532565b92909b9a9998979695949391600260005414610a87576002600055604051631a90a21960e01b8152936020856004817f00000000000000000000000000000000000000000000000000000000000000006001600160a01b03165afa94851561046257600095610a57575b506109ac8886610afd565b34146109b790610b0f565b6109c081611cd6565b6109cc819f8290611c4a565b906109d691611ca6565b6109e09082611b5d565b906109e9610247565b6001600160a01b0390911681529d8e9060ff1660208201526040015261ffff1660608d015260808c015263ffffffff1660a08b015260c08a015260e08901526101008801526101208701526001600160a01b0316610140860152610a4c94610f12565b906102746001600055565b610a7991955060203d8111610a80575b610a718183610226565b810190610acc565b93386109a1565b503d610a67565b60405162461bcd60e51b815260206004820152601f60248201527f5265656e7472616e637947756172643a207265656e7472616e742063616c6c006044820152606490fd5b9081602091031261012b575190565b6040513d6000823e3d90fd5b634e487b7160e01b600052601160045260246000fd5b91908201809211610b0a57565b610ae7565b15610b1657565b60405162461bcd60e51b8152602060048201526012602482015271696e73756666696369656e742076616c756560701b6044820152606490fd5b15610b5757565b606460405162461bcd60e51b815260206004820152602060248201527f574554482066756e6374696f6e616c697479206e6f7420737570706f727465646044820152fd5b91908203918211610b0a57565b90999897969594939291610bdb7f0000000000000000000000000000000000000000000000000000000000000000610b50565b604051631a90a21960e01b81526001600160a01b039b909283807f00000000000000000000000000000000000000000000000000000000000000008f165a92600491602094fa93841561046257600094610d6e575b50610c4f610c3e8886610afd565b610c49813411610b0f565b34610b9b565b610c68610c626402540be4008304611c8c565b82610b9b565b80158015610d46575b50610c7b91610b9b565b9c7f0000000000000000000000000000000000000000000000000000000000000000169c8d3b1561012b578060008f600460405180948193630d0e30db60e41b83525af1801561046257610d33575b50610cd3610247565b6001600160a01b03909e168e52601260208f01528d6040015261ffff1660608d015260808c015263ffffffff1660a08b015260c08a015260e08901526101008801526101208701526001600160a01b031661014086015261032394610f12565b8061047e610d40926101a2565b38610cca565b8190600090610d65575b600080809381933390f1156104625738610c71565b506108fc610d50565b610d8791945060203d8111610a8057610a718183610226565b9238610c30565b15610d9557565b60405162461bcd60e51b8152602060048201526024808201527f746172676574526563697069656e742063616e6e6f74206265206279746573336044820152633228302960e01b6064820152608490fd5b15610ded57565b60405162461bcd60e51b815260206004820152601d60248201527f6e6f726d616c697a656420616d6f756e74206d757374206265203e20300000006044820152606490fd5b51906001600160401b038216820361012b57565b9081602091031261012b5761032390610e32565b929361ffff60c09563ffffffff9461032399989460018060a01b03168752602087015216604085015260608401521660808201528160a08201520190610532565b908060209392818452848401376000828201840152601f01601f1916010190565b9694610323989693610ef69361ffff610f049794168a5260208a015260018060a01b0316604089015260c0606089015260c0880191610e9b565b908582036080870152610532565b9260a0818503910152610e9b565b94939092916080860195610f2887511515610d8e565b610f646040820197610f53610f4c8a51610f46602087015160ff1690565b90611c4a565b1515610de6565b51610f5c610267565b908152611d68565b81519093906001600160a01b031688516001600160a01b03997f00000000000000000000000000000000000000000000000000000000000000008b169392602092610fb09186906111f3565b60c085015185519094906001600160a01b031691516060870195610fd6875161ffff1690565b9361100e60e08a01519b610ff160a08c015163ffffffff1690565b6040516362d2f5ed60e11b81529d8e988997889660048801610e5a565b03925af194851561046257600095611109575b5084987f00000000000000000000000000000000000000000000000000000000000000001693611059610120850151935161ffff1690565b916110bf61107761014061010088015197015160018060a01b031690565b977f00000000000000000000000000000000000000000000000000000000000000007f0000000000000000000000000000000000000000000000000000000000000000611139565b97863b1561012b576000986110eb936040519b8c9a8b998a9863c513d43760e01b8a5260048a01610ebc565b03925af18015610462576110fc5750565b8061047e610274926101a2565b61112b91955060203d8111611132575b6111238183610226565b810190610e46565b9338611021565b503d611119565b604051634552563160e01b602082015260f09190911b6001600160f01b0319166024820152602681019190915260c09190911b6001600160c01b0319166046820152602e81526103238161020b565b1561118f57565b60405162461bcd60e51b815260206004820152603660248201527f5361666545524332303a20617070726f76652066726f6d206e6f6e2d7a65726f60448201527520746f206e6f6e2d7a65726f20616c6c6f77616e636560501b6064820152608490fd5b91909181158015611250575b6102749361120f61124b92611188565b60405163095ea7b360e01b60208201526001600160a01b039091166024820152604481019390935282606481015b03601f198101845283610226565b6112ce565b50604051636eb1769f60e11b81523060048201526001600160a01b038416602482015292602084806044810103816001600160a01b0386165afa9081156104625761120f61124b92610274966000916112b0575b501592505093506111ff565b6112c8915060203d8111610a8057610a718183610226565b386112a4565b60018060a01b03169061132d6040516112e6816101f0565b6020938482527f5361666545524332303a206c6f772d6c6576656c2063616c6c206661696c6564858301526000808587829751910182855af16113276113bf565b916113ef565b80518061133b575b50505050565b818491810103126113bb57820151908115918215036113b8575061136157808080611335565b6084906040519062461bcd60e51b82526004820152602a60248201527f5361666545524332303a204552433230206f7065726174696f6e20646964206e6044820152691bdd081cdd58d8d9595960b21b6064820152fd5b80fd5b5080fd5b3d156113ea573d906113d082610296565b916113de6040519384610226565b82523d6000602084013e565b606090565b919290156114515750815115611403575090565b3b1561140c5790565b60405162461bcd60e51b815260206004820152601d60248201527f416464726573733a2063616c6c20746f206e6f6e2d636f6e74726163740000006044820152606490fd5b8251909150156114645750805190602001fd5b60405162461bcd60e51b81529081906114809060048301610557565b0390fd5b60405163a9059cbb60e01b60208201526001600160a01b03909216602483015260448201929092526102749161124b826064810161123d565b519061027482610120565b5190610274826105ff565b5190610274826105e6565b81601f8201121561012b5780516114f481610296565b926115026040519485610226565b8184526020828401011161012b57610323916020808501910161050f565b9080601f8301121561012b578151916001600160401b0383116101b557604091825193602091611555838360051b0187610226565b818652828087019260071b8501019381851161012b578301915b84831061157f5750505050505090565b60808383031261012b57836080918751611598816101d5565b855181528286015183820152888601516115b181610120565b89820152606080870151906115c582610120565b82015281520192019161156f565b9060208282031261012b5781516001600160401b039283821161012b5701906101608282031261012b57611605610247565b9261160f836114bd565b845261161d602084016114c8565b602085015261162e604084016114c8565b604085015261163f606084016114d3565b60608501526080830151608085015261165a60a08401610e32565b60a085015261166b60c084016114bd565b60c085015260e083015181811161012b57826116889185016114de565b60e085015261010061169b8185016114c8565b90850152610120918284015191821161012b576116b9918401611520565b90830152610140809101519082015290565b9060208282031261012b5781516001600160401b03811161012b5761032392016114de565b9060208282031261012b5781516001600160401b039283821161012b5701906101008282031261012b57611722610276565b9261172c836114bd565b8452602083015160208501526040830151604085015261174e606084016114d3565b60608501526080830151608085015261176960a084016114d3565b60a085015260c083015160c085015260e083015190811161012b5761178e92016114de565b60e082015290565b60405163a9e1189360e01b81529091600091806117b68560048301610557565b6001600160a01b039291859183919003817f000000000000000000000000000000000000000000000000000000000000000086165afa90811561046257849161195a575b5061180860e08201516119d2565b936118548161181687611d20565b947f000000000000000000000000000000000000000000000000000000000000000016976040518093819263c3f511c160e01b835260048301610557565b0381838b5af180156104625761189c9483928392611932575b506118809061187b89611d20565b610b9b565b97604051808097819463ea63738d60e01b835260048301610557565b03915afa9182156104625760e093829361190e575b50606081015161ffff16917fcaf280c8cfeba144da67230d9b009c8f868a75bac9a528fa0474be1ba317c16961ffff6001600160401b0361190160a060808701519601516001600160401b031690565b1694169180a40151929190565b61192b9193503d8084833e6119238183610226565b8101906116f0565b91386118b1565b611880919250611953903d8086833e61194b8183610226565b8101906116cb565b919061186d565b61197691503d8086833e61196e8183610226565b8101906115d3565b386117fa565b9081602091031261012b5751610323816105ad565b1561199857565b60405162461bcd60e51b81526020600482015260126024820152711d1bdad95b881b9bdd08185d1d195cdd195960721b6044820152606490fd5b906119e56119df83611b10565b92611ac4565b61ffff8181167f000000000000000000000000000000000000000000000000000000000000000090911614611ab957604051630ff8f14360e11b815261ffff91909116600482015260248101929092526001600160a01b036020836044817f000000000000000000000000000000000000000000000000000000000000000085165afa92831561046257600093611a85575b506102749083161515611991565b610274919350611aab9060203d8111611ab2575b611aa38183610226565b81019061197c565b9290611a77565b503d611a99565b509061032390611bd0565b6043815110611ad4576043015190565b60405162461bcd60e51b8152602060048201526014602482015273746f55696e7431365f6f75744f66426f756e647360601b6044820152606490fd5b6041815110611b20576041015190565b60405162461bcd60e51b8152602060048201526015602482015274746f427974657333325f6f75744f66426f756e647360581b6044820152606490fd5b90611b6782611d20565b91604051916323b872dd60e01b602084015233602484015230604484015260648301526064825260a082018281106001600160401b038211176101b557604052611bc391611bbe906001600160a01b0383166112ce565b611d20565b908103908111610b0a5790565b6001600160a01b03198116611beb576001600160a01b031690565b60405162461bcd60e51b8152602060048201526013602482015272696e76616c69642045564d206164647265737360681b6044820152606490fd5b60ff6007199116019060ff8211610b0a57565b60ff16604d8111610b0a57600a0a90565b90600860ff821611611c5a575090565b611c66611c6b91611c26565b611c39565b908115611c76570490565b634e487b7160e01b600052601260045260246000fd5b6402540be40090818102918183041490151715610b0a5790565b90600860ff821611611cb6575090565b611c66611cc291611c26565b90818102918183041490151715610b0a5790565b60008091604051602081019063313ce56760e01b825260048152611cf9816101f0565b51915afa50611d066113bf565b60208180518101031261012b576020015161032381610120565b6000809160405160208101906370a0823160e01b825230602482015260248152611d498161020b565b51915afa50610323611d596113bf565b60208082518301019101610acc565b5160405190602082015260208152610323816101f0565b9060405191611d8d836101ba565b60008352826020825110611b20576020820151905251602003611dac57565b60405162461bcd60e51b81526020600482015260166024820152750d2dcecc2d8d2c840dacae6e6c2ceca40d8cadccee8d60531b6044820152606490fdfea264697066735822122022d5cfd0a3330ddf988298b7a585f3633c2f6dbaf09dcb40eb0ed2abaaa5819e64736f6c63430008130033","linkReferences":{}},"methodIdentifiers":{"VERSION()":"ffa1ad74","chainId()":"9a8a0592","completeTransferWithRelay(bytes)":"2f25e25f","decodeTransferWithRelay(bytes)":"7c9dec7a","denormalizeAmount(uint256,uint8)":"28ded8e3","encodeTransferWithRelay((bytes32))":"50789cb5","executor()":"c34c08e5","fetchLocalAddressFromTransferMessage(bytes)":"2d77e8fe","normalizeAmount(uint256,uint8)":"27105ab9","tokenBridge()":"c6328a46","tokenBridgeEmitter()":"d8b32910","transferTokensWithRelay(address,uint256,uint16,bytes32,uint32,bytes32,bytes32,uint256,address,bytes,bytes)":"730a286b","unwrapWeth()":"9cf278cd","weth()":"3fc8cef3","wormhole()":"84acd1bb","wrapAndTransferEthWithRelay(uint16,bytes32,uint32,bytes32,bytes32,uint256,address,bytes,bytes)":"e50e7e72"},"id":32}